:020000040000FA
:100000000C945D000C943F030C9418030C94850031
:100010000C9485000C9485000C9485000C9485004C
:100020000C9485000C9485000C9485000C94BE0300
:100030000C9485000C9485000C9485000C9485002C
:100040000C94CE020C9485000C948C030C946603E3
:100050000C9485000C9485000C9485000C9485000C
:100060000C9485000C9485000000000024002700FB
:100070002A0000000000250028002B0004040404CE
:100080000404040402020202020203030303030342
:10009000010204081020408001020408102001021F
:1000A00004081020000000080002010000030407FB
:1000B00000000000000000007A0411241FBECFEFF2
:1000C000D8E0DEBFCDBF11E0A0E0B1E0E0E2F3E1B7
:1000D00002C005900D92A032B107D9F721E0A0E24D
:1000E000B1E001C01D92AA3FB207E1F710E0CDE5F3
:1000F000D0E004C02197FE010E948809CC35D107C9
:10010000C9F70E94D7040C948E090C940000E0916A
:10011000F701EC30E0F42091F80188E890E0821BD0
:10012000910927FD939523E0880F991F2A95E1F700
:1001300004974FB7F8942E2F30E0F901EE0FFF1F10
:10014000E20FF31FEE52FE4F928381834FBF08955B
:1001500090E0FC01EC55FF4F2491FC01E057FF4F6C
:100160003491FC01E458FF4FE491EE23C9F02223BF
:1001700039F0233001F1A8F4213019F1223029F1AE
:10018000F0E0EE0FFF1FEE58FF4FA591B4918FB72F
:10019000F894EC91611126C030953E233C938FBFBB
:1001A00008952730A9F02830C9F0243049F780910C
:1001B00080008F7D03C0809180008F7780938000C6
:1001C000DFCF84B58F7784BDDBCF84B58F7DFBCF48
:1001D0008091B0008F778093B000D2CF8091B00033
:1001E0008F7DF9CF3E2BDACFCF93DF9390E0FC01E8
:1001F000E057FF4F249184589F4FFC01849188233E
:10020000D1F090E0880F991FFC01E859FF4FA591AC
:10021000B491FC01EE58FF4FC591D49161110EC00D
:100220009FB7F8948C91E22FE0958E238C932881D0
:10023000E223E8839FBFDF91CF9108958FB7F894B1
:10024000EC91E22BEC938FBFF6CFCF93DF93EC01D1
:1002500061E080E00E94F400209731F460E080E0EB
:10026000DF91CF910C94A800CF3FD10511F461E04C
:10027000F6CFE4EAF0E0E491E33029F140F4E13034
:10028000B1F0E230D9F0C038D1058CF7E7CFE730D4
:1002900021F1E83051F1E430B1F7809180008062C3
:1002A00080938000D0938B00C0938A0004C084B5F3
:1002B000806884BDC7BDDF91CF91089584B5806209
:1002C00084BDC8BDF8CF8091800080688093800095
:1002D000D0938900C0938800EECF8091B0008068F1
:1002E0008093B000C093B300E6CF8091B0008062ED
:1002F0008093B000C093B400DECF8E5080648093B2
:100300007C0080917A00806480937A0080917A00EA
:1003100086FDFCCF80917800909179000895089532
:10032000AF92BF92CF92DF92EF92FF920F931F9303
:10033000CF93DF936C017B018B01040F151FEB0141
:100340005E01AE18BF08C017D10759F06991D601F8
:10035000ED91FC910190F081E02DC6010995892B6A
:1003600079F7C501DF91CF911F910F91FF90EF9029
:10037000DF90CF90BF90AF900895FC01538D448DD6
:10038000252F30E0842F90E0821B930B541710F040
:10039000CF96089501970895FC01918D828D98174D
:1003A00061F0A28DAE0FBF2FB11D5D968C91928D25
:1003B0009F5F9F73928F90E008958FEF9FEF089556
:1003C000FC01918D828D981731F0828DE80FF11D1F
:1003D000858D90E008958FEF9FEF0895FC01918D3A
:1003E000228D892F90E0805C9F4F821B91098F7333
:1003F0009927089585E391E00E94EE0121E0892B81
:1004000009F420E0822F089580E090E0892B29F004
:100410000E94FA0181110C9400000895FC01A48D42
:10042000A80FB92FB11DA35ABF4F2C91848D90E016
:1004300001968F739927848FA689B7892C93A089F9
:10044000B1898C91837080648C93938D848D981383
:1004500006C00288F389E02D80818F7D8083089516
:10046000EF92FF920F931F93CF93DF93EC0181E004
:10047000888F9B8D8C8D98131AC0E889F9898081AB
:1004800085FF15C09FB7F894EE89FF896083E889DE
:10049000F98980818370806480839FBF81E090E0D0
:1004A000DF91CF911F910F91FF90EF900895F62E5D
:1004B0000B8D10E00F5F1F4F0F731127E02E8C8DF7
:1004C0008E110CC00FB607FCFACFE889F98980813C
:1004D00085FFF5CFCE010E940E02F1CFEB8DEC0F20
:1004E000FD2FF11DE35AFF4FF0829FB7F8940B8F59
:1004F000EA89FB8980818062CFCFCF93DF93EC01C3
:10050000888D8823B9F0AA89BB89E889F9898C91FB
:1005100085FD03C0808186FD0DC00FB607FCF7CFB7
:100520008C9185FFF2CF808185FFEDCFCE010E94B7
:100530000E02E9CFDF91CF910895CF93DF93FC01B5
:1005400001900020E9F73197AF01481B590BBC011E
:1005500085E391E00E949001EC0142E050E06AE105
:1005600071E085E391E00E9490018C0F9D1FDF9167
:10057000CF9108950E94B80625EB30E040E050E0AE
:100580000E94100760932A010E94870061E080E0CA
:100590000E94A80081E080932B0108951F920F9282
:1005A0000FB60F9211242F933F938F939F93AF9386
:1005B000BF938091310190913201A0913301B091AC
:1005C00034013091300123E0230F2D3758F5019687
:1005D000A11DB11D20933001809331019093320110
:1005E000A0933301B093340180912C0190912D019F
:1005F000A0912E01B0912F010196A11DB11D8093F4
:100600002C0190932D01A0932E01B0932F01BF9147
:10061000AF919F918F913F912F910F900FBE0F90AF
:100620001F90189526E8230F0296A11DB11DD2CF69
:100630001F920F920FB60F9211242F933F934F9357
:100640005F936F937F938F939F93AF93BF93EF933A
:10065000FF93E0910201F09103010995FF91EF9161
:10066000BF91AF919F918F917F916F915F914F91CA
:100670003F912F910F900FBE0F901F9018951F92D2
:100680000F920FB60F9211242F933F934F935F93C6
:100690006F937F938F939F93AF93BF93EF93FF934A
:1006A000E0910001F09101010995FF91EF91BF9157
:1006B000AF919F918F917F916F915F914F913F91FA
:1006C0002F910F900FBE0F901F9018951F920F92B1
:1006D0000FB60F9211242F933F934F935F936F9315
:1006E0007F938F939F93AF93BF93EF93FF9385E394
:1006F00091E00E940E02FF91EF91BF91AF919F9107
:100700008F917F916F915F914F913F912F910F90BA
:100710000FBE0F901F9018951F920F920FB60F9259
:1007200011242F938F939F93EF93FF93E0914501B3
:10073000F09146018081E0914B01F0914C0182FDE6
:100740001BC0908180914E018F5F8F7320914F016C
:10075000821741F0E0914E01F0E0EB5CFE4F958F87
:1007600080934E01FF91EF919F918F912F910F9068
:100770000FBE0F901F9018958081F4CF1F920F929B
:100780000FB60F9211242F933F934F935F936F9364
:100790007F938F939F93AF93BF93CF93DF93EF9309
:1007A000FF9380912001C091F601D0E087FF24C023
:1007B0001092850010928400809120018F5F8093B9
:1007C000200180912001082E000C990B8C179D07A9
:1007D00024F4809120018C30C4F1809184009091A8
:1007E0008500049680349C4908F47AC08091840086
:1007F00090918500049676C080912001082E000C0F
:10080000990B8C179D07C4F6E09120018E2FEE0FF7
:10081000990BFC01EE0FFF1FE80FF91FEE52FE4F80
:10082000808186FFC9CFE09120018E2FEE0F990BBA
:10083000FC01EE0FFF1FE80FF91FEE52FE4F808103
:1008400060E08F730E94A800B7CF209184003091A0
:100850008500E09120018E2FEE0F990BFC01EE0F29
:10086000FF1FE80FF91FEE52FE4F81819281820F28
:10087000931F9093890080938800E09120018E2F30
:10088000EE0F990BFC01EE0FFF1FE80FF91FEE5260
:10089000FE4F808186FF11C0E09120018E2FEE0F68
:1008A000990BFC01EE0FFF1FE80FF91FEE52FE4FF0
:1008B000808161E08F730E94A800FF91EF91DF912A
:1008C000CF91BF91AF919F918F917F916F915F91E8
:1008D0004F913F912F910F900FBE0F901F90189541
:1008E00080E49CE990938900809388008FEF809347
:1008F0002001E3CF109238011092370188EE93E087
:10090000A0E0B0E08093390190933A01A0933B01BD
:10091000B0933C018CE091E09093360180933501D7
:1009200085EC90E0909342018093410184EC90E04B
:10093000909344018093430180EC90E090934601B2
:100940008093450181EC90E09093480180934701AA
:1009500082EC90E090934A018093490186EC90E00C
:1009600090934C0180934B0110924E0110924F01D5
:1009700010925001109251018091F6018C3098F440
:1009800091E0980F9093F6018093F70190E0FC01BD
:10099000EE0FFF1FE80FF91FEE52FE4F88EB9BE0B2
:1009A0009283818308958FEF8093F701089578945F
:1009B00084B5826084BD84B5816084BD85B5826064
:1009C00085BD85B5816085BD80916E008160809315
:1009D0006E0010928100809181008260809381007E
:1009E000809181008160809381008091800081608E
:1009F000809380008091B10084608093B1008091E9
:100A0000B00081608093B00080917A008460809310
:100A10007A0080917A00826080937A0080917A00D7
:100A2000816080937A0080917A00806880937A0058
:100A30001092C100E0914501F091460182E080836F
:100A4000E0914101F09142011082E0914301F09167
:100A5000440180E1808310924D01E0914901F091C1
:100A60004A0186E08083E0914701F091480180814E
:100A700080618083E0914701F09148018081886026
:100A80008083E0914701F0914801808180688083F4
:100A9000E0914701F091480180818F7D808360E083
:100AA00080E10E94F40060E08FE00E94F40060E0CA
:100AB0008EE00E94F40061E080E00E94F40061E0BA
:100AC00080E00E94F40061E080E00E94F4008091E8
:100AD000F7018C3008F051C061E089E00E94F40019
:100AE0008091F701282F30E0F901EE0FFF1FE20F90
:100AF000F31FEE52FE4F9081907C9960908310928C
:100B0000F8011092F9012CE0622F0E947C09829F6B
:100B1000B001112430E020E0AB01420F531FFA0175
:100B2000EE0FFF1FE40FF51FEE52FE4F908196FD72
:100B300016C02F5F3F4F2C30310571F781110FC068
:100B40001092800082E080938100109285001092C4
:100B50008400B19A80916F00826080936F00E09171
:100B6000F7018E2F90E0FC01EE0FFF1FE80FF91F39
:100B7000EE52FE4F8081806480830E9487002FB7F1
:100B8000F8948091310190913201A0913301B0919C
:100B900034012FBF8093210190932201A093230160
:100BA000B093240100E010E080912B01882321F014
:100BB00010922B010E94BA0260912A0170E090E02D
:100BC00080E00E9483082091260130912701409106
:100BD0002801509129010E9473070E945208C62FD4
:100BE00060932501E62EF12C6A3008F066C0C7013B
:100BF0000E94250160E080E00E94A80060E080E0A3
:100C00000E94A8008FB7F8944091310150913201B1
:100C100060913301709134018FBF809121019091D7
:100C20002201A0912301B09124014496A11DB11D80
:100C3000481759076A077B07A0F181E10E947D01EF
:100C4000BC0190E080E00E9481086B017C0120E003
:100C500030E0A90163E373E383E590E40E94E007D9
:100C60009B01AC01C701B6010E940F0920E030E0F2
:100C7000A9010E94E0070E94520870E090E080E025
:100C80000E948108609326017093270180932801B8
:100C9000909329018FE00E947D018DE191E00E94F7
:100CA0009D020115110509F47FCF0E94FA018823E6
:100CB00009F47ACF0E94000077CFC7010E94250176
:100CC00060E080E00E94A80060E080E00E94A80050
:100CD000CA3009F097CF8BCF8F929F92AF92BF927D
:100CE000CF92DF92EF92FF92CF93DF93EC01688176
:100CF00079818A819B81611571058105910521F4B6
:100D000064E279ED8BE597E02DE133EF41E050E0CF
:100D10000E94100749015A019B01AC01A7EAB1E406
:100D20000E942F076B017C01ACEEB4EFA50194018A
:100D30000E943D07C60ED71EE81EF91EF7FE06C02C
:100D400081E0C81AD108E10880E8F80AC882D9828F
:100D5000EA82FB82C701B6019F77DF91CF91FF90B6
:100D6000EF90DF90CF90BF90AF909F908F900895BD
:100D70008F929F92AF92BF92CF92DF92EF92FF92AB
:100D80006091040170910501809106019091070125
:100D9000611571058105910521F464E279ED8BE51A
:100DA00097E02DE133EF41E050E00E941007490148
:100DB0005A019B01AC01A7EAB1E40E942F076B0125
:100DC0007C01ACEEB4EFA50194010E943D07C60E74
:100DD000D71EE81EF91EF7FE06C081E0C81AD1082A
:100DE000E10880E8F80AC0920401D0920501E0927F
:100DF0000601F0920701C701B6019F77FF90EF90BF
:100E0000DF90CF90BF90AF909F908F9008956093A8
:100E100004017093050180930601909307010895E2
:100E2000052E97FB1EF400940E94270757FD07D05C
:100E30000E94420707FC03D04EF40C9427075095FC
:100E40004095309521953F4F4F4F5F4F08959095B6
:100E50008095709561957F4F8F4F9F4F08950E94A9
:100E60006407A59F900DB49F900DA49F800D911DC8
:100E700011240895B7FF0C942F070E942F07821B9F
:100E8000930B0895A1E21A2EAA1BBB1BFD010DC0F6
:100E9000AA1FBB1FEE1FFF1FA217B307E407F5072A
:100EA00020F0A21BB30BE40BF50B661F771F881F06
:100EB000991F1A9469F760957095809590959B019C
:100EC000AC01BD01CF010895A29FB001B39FC00145
:100ED000A39F700D811D1124911DB29F700D811D66
:100EE0001124911D08955058BB27AA270E948B07F3
:100EF0000C94D5080E94C70838F00E94CE0820F054
:100F000039F49F3F19F426F40C94C4080EF4E095CC
:100F1000E7FB0C94BE08E92F0E94E60858F3BA17C5
:100F2000620773078407950720F079F4A6F50C94FF
:100F300008090EF4E0950B2EBA2FA02D0B01B90174
:100F400090010C01CA01A0011124FF27591B99F03F
:100F5000593F50F4503E68F11A16F040A22F232F4B
:100F6000342F4427585FF3CF469537952795A7959B
:100F7000F0405395C9F77EF41F16BA0B620B730B42
:100F8000840BBAF09150A1F0FF0FBB1F661F771FB3
:100F9000881FC2F70EC0BA0F621F731F841F48F468
:100FA000879577956795B795F7959E3F08F0B0CFF1
:100FB0009395880F08F09927EE0F979587950895D8
:100FC0000E94F4070C94D5080E94CE0858F00E94A5
:100FD000C70840F029F45F3F29F00C94BE08511176
:100FE0000C9409090C94C4080E94E60868F399233C
:100FF000B1F3552391F3951B550BBB27AA27621715
:101000007307840738F09F5F5F4F220F331F441F21
:10101000AA1FA9F335D00E2E3AF0E0E832D0915055
:101020005040E695001CCAF72BD0FE2F29D0660F42
:10103000771F881FBB1F261737074807AB07B0E885
:1010400009F0BB0B802DBF01FF2793585F4F3AF08B
:101050009E3F510578F00C94BE080C9409095F3F3F
:10106000E4F3983ED4F3869577956795B795F79511
:101070009F5FC9F7880F911D9695879597F90895F9
:10108000E1E0660F771F881FBB1F62177307840795
:10109000BA0720F0621B730B840BBA0BEE1F88F7A4
:1010A000E09508950E94EE0888F09F5798F0B92FB8
:1010B0009927B751B0F0E1F0660F771F881F991F8D
:1010C0001AF0BA95C9F714C0B13091F00E9408091E
:1010D000B1E008950C940809672F782F8827B85F2E
:1010E00039F0B93FCCF3869577956795B395D9F7E5
:1010F0003EF490958095709561957F4F8F4F9F4FEF
:101100000895E89409C097FB3EF4909580957095FA
:1011100061957F4F8F4F9F4F9923A9F0F92F96E943
:10112000BB279395F695879577956795B795F111B8
:10113000F8CFFAF4BB0F11F460FF1BC06F5F7F4F55
:101140008F4F9F4F16C0882311F096E911C0772367
:1011500021F09EE8872F762F05C0662371F096E870
:10116000862F70E060E02AF09A95660F771F881F3F
:10117000DAF7880F9695879597F9089597F99F67FD
:1011800080E870E060E008959FEF80EC089500240F
:101190000A941616170618060906089500240A94DC
:1011A00012161306140605060895092E0394000C62
:1011B00011F4882352F0BB0F40F4BF2B11F460FFF1
:1011C00004C06F5F7F4F8F4F9F4F089557FD90581A
:1011D000440F551F59F05F3F71F04795880F97FBFB
:1011E000991F61F09F3F79F08795089512161306B5
:1011F0001406551FF2CF4695F1DF08C016161706E4
:101200001806991FF1CF8695710561050894089518
:10121000E894BB2766277727CB0197F908950E94AA
:1012200022090C94D5080E94C70838F00E94CE0805
:1012300020F0952311F00C94BE080C94C4081124DE
:101240000C9409090E94E60870F3959FC1F3950F6D
:1012500050E0551F629FF001729FBB27F00DB11D3A
:10126000639FAA27F00DB11DAA1F649F6627B00DCA
:10127000A11D661F829F2227B00DA11D621F739FB3
:10128000B00DA11D621F839FA00D611D221F749FC1
:101290003327A00D611D231F849F600D211D822F08
:1012A000762F6A2F11249F5750409AF0F1F088232F
:1012B0004AF0EE0FFF1FBB1F661F771F881F91505C
:1012C0005040A9F79E3F510580F00C94BE080C9445
:1012D00009095F3FE4F3983ED4F3869577956795C7
:1012E000B795F795E7959F5FC1F7FE2B880F911D86
:1012F0009695879597F90895991B79E004C0991FF1
:10130000961708F0961B881F7A95C9F7809508955F
:10131000EE0FFF1F0590F491E02D0994F894FFCF94
:101320008F018F01010000000000000030029001D9
:10133000BD017D02EE01CC01E0010D0A002B2B0066
:107E0000112484B714BE81FFF0D085E080938100F7
:107E100082E08093C00088E18093C10086E0809377
:107E2000C20080E18093C4008EE0C9D0259A86E02C
:107E300020E33CEF91E0309385002093840096BBD3
:107E4000B09BFECF1D9AA8958150A9F7CC24DD24C4
:107E500088248394B5E0AB2EA1E19A2EF3E0BF2EE7
:107E6000A2D0813461F49FD0082FAFD0023811F036
:107E7000013811F484E001C083E08DD089C08234E0
:107E800011F484E103C0853419F485E0A6D080C0E4
:107E9000853579F488D0E82EFF2485D0082F10E0AE
:107EA000102F00270E291F29000F111F8ED06801E7
:107EB0006FC0863521F484E090D080E0DECF843638
:107EC00009F040C070D06FD0082F6DD080E0C81688
:107ED00080E7D80618F4F601B7BEE895C0E0D1E017
:107EE00062D089930C17E1F7F0E0CF16F0E7DF06D8
:107EF00018F0F601B7BEE89568D007B600FCFDCFD4
:107F0000A601A0E0B1E02C9130E011968C91119780
:107F100090E0982F8827822B932B1296FA010C0160
:107F200087BEE89511244E5F5F4FF1E0A038BF0790
:107F300051F7F601A7BEE89507B600FCFDCF97BE46
:107F4000E89526C08437B1F42ED02DD0F82E2BD052
:107F50003CD0F601EF2C8F010F5F1F4F84911BD097
:107F6000EA94F801C1F70894C11CD11CFA94CF0C13
:107F7000D11C0EC0853739F428D08EE10CD085E9AC
:107F80000AD08FE07ACF813511F488E018D01DD067
:107F900080E101D065CF982F8091C00085FFFCCF94
:107FA0009093C60008958091C00087FFFCCF809118
:107FB000C00084FD01C0A8958091C6000895E0E648
:107FC000F0E098E1908380830895EDDF803219F02E
:107FD00088E0F5DFFFCF84E1DECF1F93182FE3DFCA
:107FE0001150E9F7F2DF1F91089580E0E8DFEE27F6
:047FF000FF270994CA
:027FFE00040479
:00000001FF
